{
    "_format": "hh-sol-artifact-1",
    "contractName": "UpgradeL1Bridge",
    "sourceName": "contracts/UpgradeL1Bridge.sol",
    "abi": [
        {
            "inputs": [],
            "name": "ER_SAME_STORAGE",
            "type": "error"
        },
        {
            "inputs": [],
            "name": "FW_FAIl_TRANSFER_ETH",
            "type": "error"
        },
        {
            "inputs": [],
            "name": "FW_INVALID_HASH",
            "type": "error"
        },
        {
            "inputs": [],
            "name": "FW_NOT_AVAILABLE_POSITION",
            "type": "error"
        },
        {
            "inputs": [],
            "name": "FW_NOT_SEARCH_POSITION",
            "type": "error"
        },
        {
            "inputs": [],
            "name": "FW_ONLY_CLOSER",
            "type": "error"
        },
        {
            "inputs": [],
            "name": "FW_ONLY_OWNER",
            "type": "error"
        },
        {
            "anonymous": false,
            "inputs": [
                {
                    "indexed": true,
                    "internalType": "address",
                    "name": "_l1Token",
                    "type": "address"
                },
                {
                    "indexed": true,
                    "internalType": "address",
                    "name": "_l2Token",
                    "type": "address"
                },
                {
                    "indexed": true,
                    "internalType": "address",
                    "name": "_from",
                    "type": "address"
                },
                {
                    "indexed": false,
                    "internalType": "address",
                    "name": "_to",
                    "type": "address"
                },
                {
                    "indexed": false,
                    "internalType": "uint256",
                    "name": "_amount",
                    "type": "uint256"
                },
                {
                    "indexed": false,
                    "internalType": "bytes",
                    "name": "_data",
                    "type": "bytes"
                }
            ],
            "name": "ERC20DepositInitiated",
            "type": "event"
        },
        {
            "anonymous": false,
            "inputs": [
                {
                    "indexed": true,
                    "internalType": "address",
                    "name": "_l1Token",
                    "type": "address"
                },
                {
                    "indexed": true,
                    "internalType": "address",
                    "name": "_l2Token",
                    "type": "address"
                },
                {
                    "indexed": true,
                    "internalType": "address",
                    "name": "_from",
                    "type": "address"
                },
                {
                    "indexed": false,
                    "internalType": "address",
                    "name": "_to",
                    "type": "address"
                },
                {
                    "indexed": false,
                    "internalType": "uint256",
                    "name": "_amount",
                    "type": "uint256"
                },
                {
                    "indexed": false,
                    "internalType": "bytes",
                    "name": "_data",
                    "type": "bytes"
                }
            ],
            "name": "ERC20WithdrawalFinalized",
            "type": "event"
        },
        {
            "anonymous": false,
            "inputs": [
                {
                    "indexed": true,
                    "internalType": "address",
                    "name": "_from",
                    "type": "address"
                },
                {
                    "indexed": true,
                    "internalType": "address",
                    "name": "_to",
                    "type": "address"
                },
                {
                    "indexed": false,
                    "internalType": "uint256",
                    "name": "_amount",
                    "type": "uint256"
                },
                {
                    "indexed": false,
                    "internalType": "bytes",
                    "name": "_data",
                    "type": "bytes"
                }
            ],
            "name": "ETHDepositInitiated",
            "type": "event"
        },
        {
            "anonymous": false,
            "inputs": [
                {
                    "indexed": true,
                    "internalType": "address",
                    "name": "_from",
                    "type": "address"
                },
                {
                    "indexed": true,
                    "internalType": "address",
                    "name": "_to",
                    "type": "address"
                },
                {
                    "indexed": false,
                    "internalType": "uint256",
                    "name": "_amount",
                    "type": "uint256"
                },
                {
                    "indexed": false,
                    "internalType": "bytes",
                    "name": "_data",
                    "type": "bytes"
                }
            ],
            "name": "ETHWithdrawalFinalized",
            "type": "event"
        },
        {
            "anonymous": false,
            "inputs": [
                {
                    "indexed": true,
                    "internalType": "bytes32",
                    "name": "_index",
                    "type": "bytes32"
                },
                {
                    "indexed": true,
                    "internalType": "address",
                    "name": "_token",
                    "type": "address"
                },
                {
                    "indexed": false,
                    "internalType": "uint256",
                    "name": "amount",
                    "type": "uint256"
                },
                {
                    "indexed": true,
                    "internalType": "address",
                    "name": "_claimer",
                    "type": "address"
                }
            ],
            "name": "ForceWithdraw",
            "type": "event"
        },
        {
            "inputs": [],
            "name": "active",
            "outputs": [
                {
                    "internalType": "bool",
                    "name": "",
                    "type": "bool"
                }
            ],
            "stateMutability": "view",
            "type": "function"
        },
        {
            "inputs": [],
            "name": "closer",
            "outputs": [
                {
                    "internalType": "address",
                    "name": "",
                    "type": "address"
                }
            ],
            "stateMutability": "view",
            "type": "function"
        },
        {
            "inputs": [
                {
                    "internalType": "address",
                    "name": "_l1Token",
                    "type": "address"
                },
                {
                    "internalType": "address",
                    "name": "_l2Token",
                    "type": "address"
                },
                {
                    "internalType": "uint256",
                    "name": "_amount",
                    "type": "uint256"
                },
                {
                    "internalType": "uint32",
                    "name": "_l2Gas",
                    "type": "uint32"
                },
                {
                    "internalType": "bytes",
                    "name": "_data",
                    "type": "bytes"
                }
            ],
            "name": "depositERC20",
            "outputs": [],
            "stateMutability": "nonpayable",
            "type": "function"
        },
        {
            "inputs": [
                {
                    "internalType": "address",
                    "name": "_l1Token",
                    "type": "address"
                },
                {
                    "internalType": "address",
                    "name": "_l2Token",
                    "type": "address"
                },
                {
                    "internalType": "address",
                    "name": "_to",
                    "type": "address"
                },
                {
                    "internalType": "uint256",
                    "name": "_amount",
                    "type": "uint256"
                },
                {
                    "internalType": "uint32",
                    "name": "_l2Gas",
                    "type": "uint32"
                },
                {
                    "internalType": "bytes",
                    "name": "_data",
                    "type": "bytes"
                }
            ],
            "name": "depositERC20To",
            "outputs": [],
            "stateMutability": "nonpayable",
            "type": "function"
        },
        {
            "inputs": [
                {
                    "internalType": "uint32",
                    "name": "_l2Gas",
                    "type": "uint32"
                },
                {
                    "internalType": "bytes",
                    "name": "_data",
                    "type": "bytes"
                }
            ],
            "name": "depositETH",
            "outputs": [],
            "stateMutability": "payable",
            "type": "function"
        },
        {
            "inputs": [
                {
                    "internalType": "address",
                    "name": "_to",
                    "type": "address"
                },
                {
                    "internalType": "uint32",
                    "name": "_l2Gas",
                    "type": "uint32"
                },
                {
                    "internalType": "bytes",
                    "name": "_data",
                    "type": "bytes"
                }
            ],
            "name": "depositETHTo",
            "outputs": [],
            "stateMutability": "payable",
            "type": "function"
        },
        {
            "inputs": [
                {
                    "internalType": "address",
                    "name": "",
                    "type": "address"
                },
                {
                    "internalType": "address",
                    "name": "",
                    "type": "address"
                }
            ],
            "name": "deposits",
            "outputs": [
                {
                    "internalType": "uint256",
                    "name": "",
                    "type": "uint256"
                }
            ],
            "stateMutability": "view",
            "type": "function"
        },
        {
            "inputs": [],
            "name": "donateETH",
            "outputs": [],
            "stateMutability": "payable",
            "type": "function"
        },
        {
            "inputs": [
                {
                    "internalType": "address",
                    "name": "_l1Token",
                    "type": "address"
                },
                {
                    "internalType": "address",
                    "name": "_l2Token",
                    "type": "address"
                },
                {
                    "internalType": "address",
                    "name": "_from",
                    "type": "address"
                },
                {
                    "internalType": "address",
                    "name": "_to",
                    "type": "address"
                },
                {
                    "internalType": "uint256",
                    "name": "_amount",
                    "type": "uint256"
                },
                {
                    "internalType": "bytes",
                    "name": "_data",
                    "type": "bytes"
                }
            ],
            "name": "finalizeERC20Withdrawal",
            "outputs": [],
            "stateMutability": "nonpayable",
            "type": "function"
        },
        {
            "inputs": [
                {
                    "internalType": "address",
                    "name": "_from",
                    "type": "address"
                },
                {
                    "internalType": "address",
                    "name": "_to",
                    "type": "address"
                },
                {
                    "internalType": "uint256",
                    "name": "_amount",
                    "type": "uint256"
                },
                {
                    "internalType": "bytes",
                    "name": "_data",
                    "type": "bytes"
                }
            ],
            "name": "finalizeETHWithdrawal",
            "outputs": [],
            "stateMutability": "nonpayable",
            "type": "function"
        },
        {
            "inputs": [
                {
                    "internalType": "bool",
                    "name": "_state",
                    "type": "bool"
                }
            ],
            "name": "forceActive",
            "outputs": [],
            "stateMutability": "nonpayable",
            "type": "function"
        },
        {
            "inputs": [
                {
                    "components": [
                        {
                            "internalType": "address",
                            "name": "position",
                            "type": "address"
                        },
                        {
                            "internalType": "bool",
                            "name": "state",
                            "type": "bool"
                        }
                    ],
                    "internalType": "struct UpgradeL1Bridge.ForceRegistryParam[]",
                    "name": "_data",
                    "type": "tuple[]"
                }
            ],
            "name": "forceModify",
            "outputs": [],
            "stateMutability": "nonpayable",
            "type": "function"
        },
        {
            "inputs": [
                {
                    "internalType": "address[]",
                    "name": "_position",
                    "type": "address[]"
                }
            ],
            "name": "forceRegistry",
            "outputs": [],
            "stateMutability": "nonpayable",
            "type": "function"
        },
        {
            "inputs": [
                {
                    "internalType": "address",
                    "name": "_position",
                    "type": "address"
                },
                {
                    "internalType": "string",
                    "name": "_hash",
                    "type": "string"
                },
                {
                    "internalType": "address",
                    "name": "_token",
                    "type": "address"
                },
                {
                    "internalType": "uint256",
                    "name": "_amount",
                    "type": "uint256"
                }
            ],
            "name": "forceWithdrawClaim",
            "outputs": [],
            "stateMutability": "nonpayable",
            "type": "function"
        },
        {
            "inputs": [
                {
                    "components": [
                        {
                            "internalType": "address",
                            "name": "position",
                            "type": "address"
                        },
                        {
                            "internalType": "string",
                            "name": "hashed",
                            "type": "string"
                        },
                        {
                            "internalType": "address",
                            "name": "token",
                            "type": "address"
                        },
                        {
                            "internalType": "uint256",
                            "name": "amount",
                            "type": "uint256"
                        }
                    ],
                    "internalType": "struct UpgradeL1Bridge.ForceClaimParam[]",
                    "name": "params",
                    "type": "tuple[]"
                }
            ],
            "name": "forceWithdrawClaimAll",
            "outputs": [],
            "stateMutability": "nonpayable",
            "type": "function"
        },
        {
            "inputs": [
                {
                    "internalType": "bytes32",
                    "name": "",
                    "type": "bytes32"
                }
            ],
            "name": "gb",
            "outputs": [
                {
                    "internalType": "address",
                    "name": "",
                    "type": "address"
                }
            ],
            "stateMutability": "view",
            "type": "function"
        },
        {
            "inputs": [
                {
                    "internalType": "string",
                    "name": "_hash",
                    "type": "string"
                }
            ],
            "name": "getForcePosition",
            "outputs": [
                {
                    "internalType": "address",
                    "name": "",
                    "type": "address"
                }
            ],
            "stateMutability": "view",
            "type": "function"
        },
        {
            "inputs": [],
            "name": "getProxyImplementation",
            "outputs": [
                {
                    "internalType": "address",
                    "name": "",
                    "type": "address"
                }
            ],
            "stateMutability": "view",
            "type": "function"
        },
        {
            "inputs": [],
            "name": "getProxyOwner",
            "outputs": [
                {
                    "internalType": "address",
                    "name": "",
                    "type": "address"
                }
            ],
            "stateMutability": "view",
            "type": "function"
        },
        {
            "inputs": [
                {
                    "internalType": "address",
                    "name": "_l1messenger",
                    "type": "address"
                },
                {
                    "internalType": "address",
                    "name": "_l2TokenBridge",
                    "type": "address"
                }
            ],
            "name": "initialize",
            "outputs": [],
            "stateMutability": "nonpayable",
            "type": "function"
        },
        {
            "inputs": [],
            "name": "l2TokenBridge",
            "outputs": [
                {
                    "internalType": "address",
                    "name": "",
                    "type": "address"
                }
            ],
            "stateMutability": "view",
            "type": "function"
        },
        {
            "inputs": [],
            "name": "messenger",
            "outputs": [
                {
                    "internalType": "address",
                    "name": "",
                    "type": "address"
                }
            ],
            "stateMutability": "view",
            "type": "function"
        },
        {
            "inputs": [
                {
                    "internalType": "address",
                    "name": "",
                    "type": "address"
                }
            ],
            "name": "position",
            "outputs": [
                {
                    "internalType": "bool",
                    "name": "",
                    "type": "bool"
                }
            ],
            "stateMutability": "view",
            "type": "function"
        },
        {
            "inputs": [
                {
                    "internalType": "uint256",
                    "name": "",
                    "type": "uint256"
                }
            ],
            "name": "positions",
            "outputs": [
                {
                    "internalType": "address",
                    "name": "",
                    "type": "address"
                }
            ],
            "stateMutability": "view",
            "type": "function"
        },
        {
            "inputs": [
                {
                    "internalType": "address",
                    "name": "_closer",
                    "type": "address"
                }
            ],
            "name": "setCloser",
            "outputs": [],
            "stateMutability": "nonpayable",
            "type": "function"
        },
        {
            "inputs": [
                {
                    "internalType": "address",
                    "name": "_closer",
                    "type": "address"
                },
                {
                    "internalType": "bool",
                    "name": "_state",
                    "type": "bool"
                }
            ],
            "name": "setCloserAndActive",
            "outputs": [],
            "stateMutability": "nonpayable",
            "type": "function"
        },
        {
            "stateMutability": "payable",
            "type": "receive"
        }
    ],
    "bytecode": "0x60806040526003805460ff1916600117905534801561001d57600080fd5b50600080546001600160a01b0319169055612cdd8061003d6000396000f3fe6080604052600436106101a55760003560e01c80638b4c40b0116100e15780639a2ac6d51161008a578063b7648fb911610064578063b7648fb91461055a578063e18937b51461058a578063f1fb2abc146105aa578063f25d6a06146105ca57600080fd5b80639a2ac6d514610514578063a9f9e67514610527578063b1a1a8821461054757600080fd5b806391c49bf8116100bb57806391c49bf8146104b457806396a9a211146104d457806399fbab88146104f457600080fd5b80638b4c40b01461029a5780638f601f661461043a57806390e4b7201461048057600080fd5b80633cb747bf1161014e57806365c0f8491161012857806365c0f849146103ba5780637044f282146103da578063838b2520146103fa5780638627ed9b1461041a57600080fd5b80633cb747bf1461035a578063485cc9551461037a57806358a997f61461039a57600080fd5b80631a4a45611161017f5780631a4a4561146102bc5780631ab7710d146102dc578063323205e61461032457600080fd5b806302fb0c5e1461024b578063064a6a2b1461027a5780631532ec341461029c57600080fd5b3661024657333b156101fe5760405162461bcd60e51b815260206004820152600f60248201527f4163636f756e74206e6f7420454f41000000000000000000000000000000000060448201526064015b60405180910390fd5b60405162461bcd60e51b815260206004820152601560248201527f537461727420537573656e742050726f746f636f6c000000000000000000000060448201526064016101f5565b600080fd5b34801561025757600080fd5b506003546102659060ff1681565b60405190151581526020015b60405180910390f35b34801561028657600080fd5b5061029a61029536600461230b565b6105ea565b005b3480156102a857600080fd5b5061029a6102b73660046123be565b6105fc565b3480156102c857600080fd5b5061029a6102d736600461243f565b6108e3565b3480156102e857600080fd5b507fb53127684a568b3173ae13b9f8a6016e243e63b6e8ee1178d6a717850b5d6103545b6040516001600160a01b039091168152602001610271565b34801561033057600080fd5b5061030c61033f366004612463565b6004602052600090815260409020546001600160a01b031681565b34801561036657600080fd5b5060005461030c906001600160a01b031681565b34801561038657600080fd5b5061029a61039536600461247c565b6109b1565b3480156103a657600080fd5b5061029a6103b53660046124ce565b610a76565b3480156103c657600080fd5b5061029a6103d5366004612551565b610b30565b3480156103e657600080fd5b5060075461030c906001600160a01b031681565b34801561040657600080fd5b5061029a61041536600461256e565b610cd2565b34801561042657600080fd5b5061029a610435366004612649565b610d3e565b34801561044657600080fd5b5061047261045536600461247c565b600260209081526000928352604080842090915290825290205481565b604051908152602001610271565b34801561048c57600080fd5b507f360894a13ba1a3210667c828492db98dca3e2076cc3735a920a3ca505d382bbc5461030c565b3480156104c057600080fd5b5060015461030c906001600160a01b031681565b3480156104e057600080fd5b5061030c6104ef36600461268b565b610e8a565b34801561050057600080fd5b5061030c61050f366004612463565b611032565b61029a6105223660046126c0565b61105c565b34801561053357600080fd5b5061029a610542366004612723565b6110f1565b61029a61055536600461279c565b61136a565b34801561056657600080fd5b50610265610575366004612551565b60056020526000908152604090205460ff1681565b34801561059657600080fd5b5061029a6105a5366004612649565b61144e565b3480156105b657600080fd5b5061029a6105c53660046127ef565b61156b565b3480156105d657600080fd5b5061029a6105e5366004612864565b611668565b6105f684848484611838565b50505050565b6001546001600160a01b031661061a6000546001600160a01b031690565b6001600160a01b0316336001600160a01b0316146106a05760405162461bcd60e51b815260206004820152602e60248201527f4f564d5f58434841494e3a206d657373656e67657220636f6e7472616374207560448201527f6e61757468656e7469636174656400000000000000000000000000000000000060648201526084016101f5565b806001600160a01b03166106bc6000546001600160a01b031690565b6001600160a01b0316636e296e456040518163ffffffff1660e01b815260040160206040518083038186803b1580156106f457600080fd5b505afa158015610708573d6000803e3d6000fd5b505050506040513d601f19601f8201168201806040525081019061072c9190612892565b6001600160a01b0316146107a85760405162461bcd60e51b815260206004820152603060248201527f4f564d5f58434841494e3a2077726f6e672073656e646572206f662063726f7360448201527f732d646f6d61696e206d6573736167650000000000000000000000000000000060648201526084016101f5565b604080516000808252602082019092526001600160a01b0387169086906040516107d291906128db565b60006040518083038185875af1925050503d806000811461080f576040519150601f19603f3d011682016040523d82523d6000602084013e610814565b606091505b505090508061088b5760405162461bcd60e51b815260206004820152603460248201527f5472616e7366657248656c7065723a3a736166655472616e736665724554483a60448201527f20455448207472616e73666572206661696c656400000000000000000000000060648201526084016101f5565b856001600160a01b0316876001600160a01b03167f2ac69ee804d9a7a0984249f508dfab7cb2534b465b6ce1580f99a38ba9c5e6318787876040516108d293929190612922565b60405180910390a350505050505050565b6007546001600160a01b03163314610927576040517f89d6e77900000000000000000000000000000000000000000000000000000000815260040160405180910390fd5b60035460ff16151581151514156109805760405162461bcd60e51b815260206004820152600a60248201527f53616d652053746174650000000000000000000000000000000000000000000060448201526064016101f5565b600380547fffffffffffffffffffffffffffffffffffffffffffffffffffffffffffffff0016911515919091179055565b6000546001600160a01b031615610a305760405162461bcd60e51b815260206004820152602660248201527f436f6e74726163742068617320616c7265616479206265656e20696e6974696160448201527f6c697a65642e000000000000000000000000000000000000000000000000000060648201526084016101f5565b600080546001600160a01b039384167fffffffffffffffffffffffff00000000000000000000000000000000000000009182161790915560018054929093169116179055565b333b15610ac55760405162461bcd60e51b815260206004820152600f60248201527f4163636f756e74206e6f7420454f41000000000000000000000000000000000060448201526064016101f5565b60035460ff1615610b185760405162461bcd60e51b815260206004820152601760248201527f506175736564204c315374616e6461726442726964676500000000000000000060448201526064016101f5565b610b288686333388888888611be4565b505050505050565b60408051600481526024810182526020810180517bffffffffffffffffffffffffffffffffffffffffffffffffffffffff167f893d20e80000000000000000000000000000000000000000000000000000000017905290516000913091610b9791906128db565b600060405180830381855af49150503d8060008114610bd2576040519150601f19603f3d011682016040523d82523d6000602084013e610bd7565b606091505b5091505080806020019051810190610bef9190612892565b6001600160a01b0316336001600160a01b031614610c39576040517f7d85418c00000000000000000000000000000000000000000000000000000000815260040160405180910390fd5b6007546001600160a01b0383811691161415610c975760405162461bcd60e51b815260206004820152600c60248201527f53616d652041646472657373000000000000000000000000000000000000000060448201526064016101f5565b50600780547fffffffffffffffffffffffff0000000000000000000000000000000000000000166001600160a01b0392909216919091179055565b60035460ff1615610d255760405162461bcd60e51b815260206004820152601760248201527f506175736564204c315374616e6461726442726964676500000000000000000060448201526064016101f5565b610d358787338888888888611be4565b50505050505050565b6007546001600160a01b03163314610d82576040517f89d6e77900000000000000000000000000000000000000000000000000000000815260040160405180910390fd5b60005b81811015610e8557600160056000858585818110610da557610da5612945565b9050602002016020810190610dba9190612551565b6001600160a01b03168152602081019190915260400160002080547fffffffffffffffffffffffffffffffffffffffffffffffffffffffffffffff00169115159190911790556006838383818110610e1457610e14612945565b9050602002016020810190610e299190612551565b81546001810183556000928352602090922090910180547fffffffffffffffffffffffff0000000000000000000000000000000000000000166001600160a01b0390921691909117905580610e7d816129a3565b915050610d85565b505050565b60008082604051602001610e9e91906129dc565b604051602081830303815290604052905060005b60065481101561102857600060068281548110610ed157610ed1612945565b60009182526020808320909101546001600160a01b0316808352600590915260409091205490915060ff16610f065750611016565b6040805160048152602481019182905260009182916001600160a01b03851691610f319088906128db565b60408051918290039091206020830180517bffffffffffffffffffffffffffffffffffffffffffffffffffffffff167fffffffff0000000000000000000000000000000000000000000000000000000090921691909117905251610f9591906128db565b600060405180830381855afa9150503d8060008114610fd0576040519150601f19603f3d011682016040523d82523d6000602084013e610fd5565b606091505b5091509150811561101257600081806020019051810190610ff69190612a48565b9050806110065750505050611016565b50919695505050505050565b5050505b80611020816129a3565b915050610eb2565b5060009392505050565b6006818154811061104257600080fd5b6000918252602090912001546001600160a01b0316905081565b60035460ff16156110af5760405162461bcd60e51b815260206004820152601760248201527f506175736564204c315374616e6461726442726964676500000000000000000060448201526064016101f5565b6105f633858585858080601f016020809104026020016040519081016040528093929190818152602001838380828437600092019190915250611d2f92505050565b6001546001600160a01b031661110f6000546001600160a01b031690565b6001600160a01b0316336001600160a01b0316146111955760405162461bcd60e51b815260206004820152602e60248201527f4f564d5f58434841494e3a206d657373656e67657220636f6e7472616374207560448201527f6e61757468656e7469636174656400000000000000000000000000000000000060648201526084016101f5565b806001600160a01b03166111b16000546001600160a01b031690565b6001600160a01b0316636e296e456040518163ffffffff1660e01b815260040160206040518083038186803b1580156111e957600080fd5b505afa1580156111fd573d6000803e3d6000fd5b505050506040513d601f19601f820116820180604052508101906112219190612892565b6001600160a01b03161461129d5760405162461bcd60e51b815260206004820152603060248201527f4f564d5f58434841494e3a2077726f6e672073656e646572206f662063726f7360448201527f732d646f6d61696e206d6573736167650000000000000000000000000000000060648201526084016101f5565b6001600160a01b038089166000908152600260209081526040808320938b16835292905220546112ce908590612a61565b6001600160a01b03808a166000818152600260209081526040808320948d1683529390529190912091909155611305908686611e36565b856001600160a01b0316876001600160a01b0316896001600160a01b03167f3ceee06c1e37648fcbb6ed52e17b3e1f275a1f8c7b22a84b2b84732431e046b3888888886040516113589493929190612a78565b60405180910390a45050505050505050565b333b156113b95760405162461bcd60e51b815260206004820152600f60248201527f4163636f756e74206e6f7420454f41000000000000000000000000000000000060448201526064016101f5565b60035460ff161561140c5760405162461bcd60e51b815260206004820152601760248201527f506175736564204c315374616e6461726442726964676500000000000000000060448201526064016101f5565b610e8533338585858080601f016020809104026020016040519081016040528093929190818152602001838380828437600092019190915250611d2f92505050565b60005b81811015610e855761155983838381811061146e5761146e612945565b90506020028101906114809190612aab565b61148e906020810190612551565b8484848181106114a0576114a0612945565b90506020028101906114b29190612aab565b6114c0906020810190612adf565b8080601f01602080910402602001604051908101604052809392919081815260200183838082843760009201919091525088925087915086905081811061150957611509612945565b905060200281019061151b9190612aab565b61152c906060810190604001612551565b86868681811061153e5761153e612945565b90506020028101906115509190612aab565b60600135611838565b80611563816129a3565b915050611451565b6007546001600160a01b031633146115af576040517f89d6e77900000000000000000000000000000000000000000000000000000000815260040160405180910390fd5b60005b81811015610e85578282828181106115cc576115cc612945565b90506040020160200160208101906115e4919061243f565b600560008585858181106115fa576115fa612945565b6116109260206040909202019081019150612551565b6001600160a01b03168152602081019190915260400160002080547fffffffffffffffffffffffffffffffffffffffffffffffffffffffffffffff001691151591909117905580611660816129a3565b9150506115b2565b60408051600481526024810182526020810180517bffffffffffffffffffffffffffffffffffffffffffffffffffffffff167f893d20e800000000000000000000000000000000000000000000000000000000179052905160009130916116cf91906128db565b600060405180830381855af49150503d806000811461170a576040519150601f19603f3d011682016040523d82523d6000602084013e61170f565b606091505b50915050808060200190518101906117279190612892565b6001600160a01b0316336001600160a01b031614611771576040517f7d85418c00000000000000000000000000000000000000000000000000000000815260040160405180910390fd5b6007546001600160a01b038481169116148015611796575060035460ff161515821515145b156117cd576040517f2c52682a00000000000000000000000000000000000000000000000000000000815260040160405180910390fd5b50600780547fffffffffffffffffffffffff0000000000000000000000000000000000000000166001600160a01b039390931692909217909155600380547fffffffffffffffffffffffffffffffffffffffffffffffffffffffffffffff0016911515919091179055565b6001600160a01b03841660009081526005602052604090205460ff1661188a576040517fef30807f00000000000000000000000000000000000000000000000000000000815260040160405180910390fd5b60008360405160200161189d91906129dc565b60408051601f19818403018152600483526024830191829052925060009182916001600160a01b03891691906118d49086906128db565b60408051918290039091206020830180517bffffffffffffffffffffffffffffffffffffffffffffffffffffffff167fffffffff000000000000000000000000000000000000000000000000000000009092169190911790525161193891906128db565b600060405180830381855afa9150503d8060008114611973576040519150601f19603f3d011682016040523d82523d6000602084013e611978565b606091505b509150915081158061198957508051155b156119c0576040517f1cbba5b300000000000000000000000000000000000000000000000000000000815260040160405180910390fd5b6040517fffffffffffffffffffffffffffffffffffffffff000000000000000000000000606087811b8216602084015233901b16603482015260488101859052600090606801604051602081830303815290604052805190602001209050600082806020019051810190611a349190612a48565b90508082141580611a5b57506000818152600460205260409020546001600160a01b031615155b15611a92576040517fbfd1ca4700000000000000000000000000000000000000000000000000000000815260040160405180910390fd5b600081815260046020526040902080547fffffffffffffffffffffffff000000000000000000000000000000000000000016331790556001600160a01b038716611b77576040805160008152602081019182905233918891611af3916128db565b60006040518083038185875af1925050503d8060008114611b30576040519150601f19603f3d011682016040523d82523d6000602084013e611b35565b606091505b50508094505083611b72576040517f515bd1b600000000000000000000000000000000000000000000000000000000815260040160405180910390fd5b611b8b565b611b8b6001600160a01b0388163388611e36565b336001600160a01b0316876001600160a01b0316827f9570d360679f48443322a65d5cabe1ef5a81d7624db792a20c7a6f3eb5de36f589604051611bd191815260200190565b60405180910390a4505050505050505050565b611bf96001600160a01b038916873087611edf565b600063662a633a60e01b89898989898888604051602401611c209796959493929190612b44565b60408051601f198184030181529190526020810180517bffffffffffffffffffffffffffffffffffffffffffffffffffffffff167fffffffff0000000000000000000000000000000000000000000000000000000090931692909217909152600154909150611c99906001600160a01b03168583611f30565b6001600160a01b03808a166000908152600260209081526040808320938c1683529290522054611cca908690612b94565b6001600160a01b03808b1660008181526002602090815260408083208e86168085529252918290209490945551918a1692917f718594027abd4eaed59f95162563e0cc6d0e8d5b86b1c7be8b1b0ac3343d039690611bd1908b908b908a908a90612a78565b600063662a633a60e01b600073deaddeaddeaddeaddeaddeaddeaddeaddead000087873487604051602401611d6996959493929190612bd8565b60408051601f198184030181529190526020810180517bffffffffffffffffffffffffffffffffffffffffffffffffffffffff167fffffffff0000000000000000000000000000000000000000000000000000000090931692909217909152600154909150611de2906001600160a01b03168483611f30565b836001600160a01b0316856001600160a01b03167f35d79ab81f2b2017e19afb5c5571778877782d7a8786f5907f93b0f4702f4f233485604051611e27929190612c26565b60405180910390a35050505050565b6040516001600160a01b038316602482015260448101829052610e859084907fa9059cbb00000000000000000000000000000000000000000000000000000000906064015b60408051601f198184030181529190526020810180517bffffffffffffffffffffffffffffffffffffffffffffffffffffffff167fffffffff0000000000000000000000000000000000000000000000000000000090931692909217909152611fab565b6040516001600160a01b03808516602483015283166044820152606481018290526105f69085907f23b872dd0000000000000000000000000000000000000000000000000000000090608401611e7b565b6000546040517f3dbb202b0000000000000000000000000000000000000000000000000000000081526001600160a01b0390911690633dbb202b90611f7d90869085908790600401612c3f565b600060405180830381600087803b158015611f9757600080fd5b505af1158015610d35573d6000803e3d6000fd5b6000612000826040518060400160405280602081526020017f5361666545524332303a206c6f772d6c6576656c2063616c6c206661696c6564815250856001600160a01b03166120939092919063ffffffff16565b90508051600014806120215750808060200190518101906120219190612c77565b610e855760405162461bcd60e51b815260206004820152602a60248201527f5361666545524332303a204552433230206f7065726174696f6e20646964206e60448201527f6f7420737563636565640000000000000000000000000000000000000000000060648201526084016101f5565b60606120a284846000856120aa565b949350505050565b6060824710156121225760405162461bcd60e51b815260206004820152602660248201527f416464726573733a20696e73756666696369656e742062616c616e636520666f60448201527f722063616c6c000000000000000000000000000000000000000000000000000060648201526084016101f5565b600080866001600160a01b0316858760405161213e91906128db565b60006040518083038185875af1925050503d806000811461217b576040519150601f19603f3d011682016040523d82523d6000602084013e612180565b606091505b50915091506121918783838761219c565b979650505050505050565b60608315612208578251612201576001600160a01b0385163b6122015760405162461bcd60e51b815260206004820152601d60248201527f416464726573733a2063616c6c20746f206e6f6e2d636f6e747261637400000060448201526064016101f5565b50816120a2565b6120a2838381511561221d5781518083602001fd5b8060405162461bcd60e51b81526004016101f59190612c94565b6001600160a01b038116811461224c57600080fd5b50565b7f4e487b7100000000000000000000000000000000000000000000000000000000600052604160045260246000fd5b600082601f83011261228f57600080fd5b813567ffffffffffffffff808211156122aa576122aa61224f565b604051601f8301601f19908116603f011681019082821181831017156122d2576122d261224f565b816040528381528660208588010111156122eb57600080fd5b836020870160208301376000602085830101528094505050505092915050565b6000806000806080858703121561232157600080fd5b843561232c81612237565b9350602085013567ffffffffffffffff81111561234857600080fd5b6123548782880161227e565b935050604085013561236581612237565b9396929550929360600135925050565b60008083601f84011261238757600080fd5b50813567ffffffffffffffff81111561239f57600080fd5b6020830191508360208285010111156123b757600080fd5b9250929050565b6000806000806000608086880312156123d657600080fd5b85356123e181612237565b945060208601356123f181612237565b935060408601359250606086013567ffffffffffffffff81111561241457600080fd5b61242088828901612375565b969995985093965092949392505050565b801515811461224c57600080fd5b60006020828403121561245157600080fd5b813561245c81612431565b9392505050565b60006020828403121561247557600080fd5b5035919050565b6000806040838503121561248f57600080fd5b823561249a81612237565b915060208301356124aa81612237565b809150509250929050565b803563ffffffff811681146124c957600080fd5b919050565b60008060008060008060a087890312156124e757600080fd5b86356124f281612237565b9550602087013561250281612237565b945060408701359350612517606088016124b5565b9250608087013567ffffffffffffffff81111561253357600080fd5b61253f89828a01612375565b979a9699509497509295939492505050565b60006020828403121561256357600080fd5b813561245c81612237565b600080600080600080600060c0888a03121561258957600080fd5b873561259481612237565b965060208801356125a481612237565b955060408801356125b481612237565b9450606088013593506125c9608089016124b5565b925060a088013567ffffffffffffffff8111156125e557600080fd5b6125f18a828b01612375565b989b979a50959850939692959293505050565b60008083601f84011261261657600080fd5b50813567ffffffffffffffff81111561262e57600080fd5b6020830191508360208260051b85010111156123b757600080fd5b6000806020838503121561265c57600080fd5b823567ffffffffffffffff81111561267357600080fd5b61267f85828601612604565b90969095509350505050565b60006020828403121561269d57600080fd5b813567ffffffffffffffff8111156126b457600080fd5b6120a28482850161227e565b600080600080606085870312156126d657600080fd5b84356126e181612237565b93506126ef602086016124b5565b9250604085013567ffffffffffffffff81111561270b57600080fd5b61271787828801612375565b95989497509550505050565b600080600080600080600060c0888a03121561273e57600080fd5b873561274981612237565b9650602088013561275981612237565b9550604088013561276981612237565b9450606088013561277981612237565b93506080880135925060a088013567ffffffffffffffff8111156125e557600080fd5b6000806000604084860312156127b157600080fd5b6127ba846124b5565b9250602084013567ffffffffffffffff8111156127d657600080fd5b6127e286828701612375565b9497909650939450505050565b6000806020838503121561280257600080fd5b823567ffffffffffffffff8082111561281a57600080fd5b818501915085601f83011261282e57600080fd5b81358181111561283d57600080fd5b8660208260061b850101111561285257600080fd5b60209290920196919550909350505050565b6000806040838503121561287757600080fd5b823561288281612237565b915060208301356124aa81612431565b6000602082840312156128a457600080fd5b815161245c81612237565b60005b838110156128ca5781810151838201526020016128b2565b838111156105f65750506000910152565b600082516128ed8184602087016128af565b9190910192915050565b818352818160208501375060006020828401015260006020601f19601f840116840101905092915050565b83815260406020820152600061293c6040830184866128f7565b95945050505050565b7f4e487b7100000000000000000000000000000000000000000000000000000000600052603260045260246000fd5b7f4e487b7100000000000000000000000000000000000000000000000000000000600052601160045260246000fd5b60007fffffffffffffffffffffffffffffffffffffffffffffffffffffffffffffffff8214156129d5576129d5612974565b5060010190565b7f5f00000000000000000000000000000000000000000000000000000000000000815260008251612a148160018501602087016128af565b7f28290000000000000000000000000000000000000000000000000000000000006001939091019283015250600301919050565b600060208284031215612a5a57600080fd5b5051919050565b600082821015612a7357612a73612974565b500390565b6001600160a01b0385168152836020820152606060408201526000612aa16060830184866128f7565b9695505050505050565b600082357fffffffffffffffffffffffffffffffffffffffffffffffffffffffffffffff818336030181126128ed57600080fd5b60008083357fffffffffffffffffffffffffffffffffffffffffffffffffffffffffffffffe1843603018112612b1457600080fd5b83018035915067ffffffffffffffff821115612b2f57600080fd5b6020019150368190038213156123b757600080fd5b60006001600160a01b03808a1683528089166020840152808816604084015280871660608401525084608083015260c060a0830152612b8760c0830184866128f7565b9998505050505050505050565b60008219821115612ba757612ba7612974565b500190565b60008151808452612bc48160208601602086016128af565b601f01601f19169290920160200192915050565b60006001600160a01b0380891683528088166020840152808716604084015280861660608401525083608083015260c060a0830152612c1a60c0830184612bac565b98975050505050505050565b8281526040602082015260006120a26040830184612bac565b6001600160a01b0384168152606060208201526000612c616060830185612bac565b905063ffffffff83166040830152949350505050565b600060208284031215612c8957600080fd5b815161245c81612431565b60208152600061245c6020830184612bac56fea26469706673582212203b6f3dc07c840fbd27ea80df3046826e0b3e4d56f06cdd96425f51b485d0c6a764736f6c63430008090033",
    "linkReferences": {},
    "deployedLinkReferences": {}
}