{
  "_format": "hh-sol-artifact-1",
  "contractName": "UpgradeL1BridgeV1",
  "sourceName": "contracts/UpgradeL1BridgeV1.sol",
  "abi": [
    {
      "inputs": [],
      "name": "ER_SAME_STORAGE",
      "type": "error"
    },
    {
      "inputs": [],
      "name": "FW_FAIl_TRANSFER_ETH",
      "type": "error"
    },
    {
      "inputs": [],
      "name": "FW_INVALID_HASH",
      "type": "error"
    },
    {
      "inputs": [],
      "name": "FW_NOT_AVAILABLE_POSITION",
      "type": "error"
    },
    {
      "inputs": [],
      "name": "FW_NOT_SEARCH_POSITION",
      "type": "error"
    },
    {
      "inputs": [],
      "name": "FW_ONLY_CLOSER",
      "type": "error"
    },
    {
      "inputs": [],
      "name": "FW_ONLY_OWNER",
      "type": "error"
    },
    {
      "anonymous": false,
      "inputs": [
        {
          "indexed": true,
          "internalType": "address",
          "name": "_l1Token",
          "type": "address"
        },
        {
          "indexed": true,
          "internalType": "address",
          "name": "_l2Token",
          "type": "address"
        },
        {
          "indexed": true,
          "internalType": "address",
          "name": "_from",
          "type": "address"
        },
        {
          "indexed": false,
          "internalType": "address",
          "name": "_to",
          "type": "address"
        },
        {
          "indexed": false,
          "internalType": "uint256",
          "name": "_amount",
          "type": "uint256"
        },
        {
          "indexed": false,
          "internalType": "bytes",
          "name": "_data",
          "type": "bytes"
        }
      ],
      "name": "ERC20DepositInitiated",
      "type": "event"
    },
    {
      "anonymous": false,
      "inputs": [
        {
          "indexed": true,
          "internalType": "address",
          "name": "_l1Token",
          "type": "address"
        },
        {
          "indexed": true,
          "internalType": "address",
          "name": "_l2Token",
          "type": "address"
        },
        {
          "indexed": true,
          "internalType": "address",
          "name": "_from",
          "type": "address"
        },
        {
          "indexed": false,
          "internalType": "address",
          "name": "_to",
          "type": "address"
        },
        {
          "indexed": false,
          "internalType": "uint256",
          "name": "_amount",
          "type": "uint256"
        },
        {
          "indexed": false,
          "internalType": "bytes",
          "name": "_data",
          "type": "bytes"
        }
      ],
      "name": "ERC20WithdrawalFinalized",
      "type": "event"
    },
    {
      "anonymous": false,
      "inputs": [
        {
          "indexed": true,
          "internalType": "address",
          "name": "_from",
          "type": "address"
        },
        {
          "indexed": true,
          "internalType": "address",
          "name": "_to",
          "type": "address"
        },
        {
          "indexed": false,
          "internalType": "uint256",
          "name": "_amount",
          "type": "uint256"
        },
        {
          "indexed": false,
          "internalType": "bytes",
          "name": "_data",
          "type": "bytes"
        }
      ],
      "name": "ETHDepositInitiated",
      "type": "event"
    },
    {
      "anonymous": false,
      "inputs": [
        {
          "indexed": true,
          "internalType": "address",
          "name": "_from",
          "type": "address"
        },
        {
          "indexed": true,
          "internalType": "address",
          "name": "_to",
          "type": "address"
        },
        {
          "indexed": false,
          "internalType": "uint256",
          "name": "_amount",
          "type": "uint256"
        },
        {
          "indexed": false,
          "internalType": "bytes",
          "name": "_data",
          "type": "bytes"
        }
      ],
      "name": "ETHWithdrawalFinalized",
      "type": "event"
    },
    {
      "anonymous": false,
      "inputs": [
        {
          "indexed": true,
          "internalType": "bytes32",
          "name": "_index",
          "type": "bytes32"
        },
        {
          "indexed": true,
          "internalType": "address",
          "name": "_token",
          "type": "address"
        },
        {
          "indexed": false,
          "internalType": "uint256",
          "name": "amount",
          "type": "uint256"
        },
        {
          "indexed": false,
          "internalType": "address",
          "name": "_claimer",
          "type": "address"
        },
        {
          "indexed": false,
          "internalType": "address",
          "name": "_requester",
          "type": "address"
        }
      ],
      "name": "ForceWithdraw",
      "type": "event"
    },
    {
      "inputs": [],
      "name": "active",
      "outputs": [
        {
          "internalType": "bool",
          "name": "",
          "type": "bool"
        }
      ],
      "stateMutability": "view",
      "type": "function"
    },
    {
      "inputs": [
        {
          "internalType": "bytes32",
          "name": "",
          "type": "bytes32"
        }
      ],
      "name": "claimState",
      "outputs": [
        {
          "internalType": "bool",
          "name": "",
          "type": "bool"
        }
      ],
      "stateMutability": "view",
      "type": "function"
    },
    {
      "inputs": [],
      "name": "closer",
      "outputs": [
        {
          "internalType": "address",
          "name": "",
          "type": "address"
        }
      ],
      "stateMutability": "view",
      "type": "function"
    },
    {
      "inputs": [
        {
          "internalType": "address",
          "name": "_l1Token",
          "type": "address"
        },
        {
          "internalType": "address",
          "name": "_l2Token",
          "type": "address"
        },
        {
          "internalType": "uint256",
          "name": "_amount",
          "type": "uint256"
        },
        {
          "internalType": "uint32",
          "name": "_l2Gas",
          "type": "uint32"
        },
        {
          "internalType": "bytes",
          "name": "_data",
          "type": "bytes"
        }
      ],
      "name": "depositERC20",
      "outputs": [],
      "stateMutability": "nonpayable",
      "type": "function"
    },
    {
      "inputs": [
        {
          "internalType": "address",
          "name": "_l1Token",
          "type": "address"
        },
        {
          "internalType": "address",
          "name": "_l2Token",
          "type": "address"
        },
        {
          "internalType": "address",
          "name": "_to",
          "type": "address"
        },
        {
          "internalType": "uint256",
          "name": "_amount",
          "type": "uint256"
        },
        {
          "internalType": "uint32",
          "name": "_l2Gas",
          "type": "uint32"
        },
        {
          "internalType": "bytes",
          "name": "_data",
          "type": "bytes"
        }
      ],
      "name": "depositERC20To",
      "outputs": [],
      "stateMutability": "nonpayable",
      "type": "function"
    },
    {
      "inputs": [
        {
          "internalType": "uint32",
          "name": "_l2Gas",
          "type": "uint32"
        },
        {
          "internalType": "bytes",
          "name": "_data",
          "type": "bytes"
        }
      ],
      "name": "depositETH",
      "outputs": [],
      "stateMutability": "payable",
      "type": "function"
    },
    {
      "inputs": [
        {
          "internalType": "address",
          "name": "_to",
          "type": "address"
        },
        {
          "internalType": "uint32",
          "name": "_l2Gas",
          "type": "uint32"
        },
        {
          "internalType": "bytes",
          "name": "_data",
          "type": "bytes"
        }
      ],
      "name": "depositETHTo",
      "outputs": [],
      "stateMutability": "payable",
      "type": "function"
    },
    {
      "inputs": [
        {
          "internalType": "address",
          "name": "",
          "type": "address"
        },
        {
          "internalType": "address",
          "name": "",
          "type": "address"
        }
      ],
      "name": "deposits",
      "outputs": [
        {
          "internalType": "uint256",
          "name": "",
          "type": "uint256"
        }
      ],
      "stateMutability": "view",
      "type": "function"
    },
    {
      "inputs": [],
      "name": "donateETH",
      "outputs": [],
      "stateMutability": "payable",
      "type": "function"
    },
    {
      "inputs": [
        {
          "internalType": "address",
          "name": "_l1Token",
          "type": "address"
        },
        {
          "internalType": "address",
          "name": "_l2Token",
          "type": "address"
        },
        {
          "internalType": "address",
          "name": "_from",
          "type": "address"
        },
        {
          "internalType": "address",
          "name": "_to",
          "type": "address"
        },
        {
          "internalType": "uint256",
          "name": "_amount",
          "type": "uint256"
        },
        {
          "internalType": "bytes",
          "name": "_data",
          "type": "bytes"
        }
      ],
      "name": "finalizeERC20Withdrawal",
      "outputs": [],
      "stateMutability": "nonpayable",
      "type": "function"
    },
    {
      "inputs": [
        {
          "internalType": "address",
          "name": "_from",
          "type": "address"
        },
        {
          "internalType": "address",
          "name": "_to",
          "type": "address"
        },
        {
          "internalType": "uint256",
          "name": "_amount",
          "type": "uint256"
        },
        {
          "internalType": "bytes",
          "name": "_data",
          "type": "bytes"
        }
      ],
      "name": "finalizeETHWithdrawal",
      "outputs": [],
      "stateMutability": "nonpayable",
      "type": "function"
    },
    {
      "inputs": [
        {
          "internalType": "bool",
          "name": "_state",
          "type": "bool"
        }
      ],
      "name": "forceActive",
      "outputs": [],
      "stateMutability": "nonpayable",
      "type": "function"
    },
    {
      "inputs": [
        {
          "components": [
            {
              "internalType": "address",
              "name": "position",
              "type": "address"
            },
            {
              "internalType": "bool",
              "name": "state",
              "type": "bool"
            }
          ],
          "internalType": "struct UpgradeL1BridgeV1.ForceRegistryParam[]",
          "name": "_data",
          "type": "tuple[]"
        }
      ],
      "name": "forceModify",
      "outputs": [],
      "stateMutability": "nonpayable",
      "type": "function"
    },
    {
      "inputs": [
        {
          "internalType": "address[]",
          "name": "_position",
          "type": "address[]"
        }
      ],
      "name": "forceRegistry",
      "outputs": [],
      "stateMutability": "nonpayable",
      "type": "function"
    },
    {
      "inputs": [
        {
          "internalType": "address",
          "name": "_position",
          "type": "address"
        },
        {
          "internalType": "string",
          "name": "_hash",
          "type": "string"
        },
        {
          "internalType": "address",
          "name": "_token",
          "type": "address"
        },
        {
          "internalType": "uint256",
          "name": "_amount",
          "type": "uint256"
        },
        {
          "internalType": "address",
          "name": "_address",
          "type": "address"
        }
      ],
      "name": "forceWithdrawClaim",
      "outputs": [],
      "stateMutability": "nonpayable",
      "type": "function"
    },
    {
      "inputs": [
        {
          "components": [
            {
              "internalType": "address",
              "name": "position",
              "type": "address"
            },
            {
              "internalType": "string",
              "name": "hashed",
              "type": "string"
            },
            {
              "internalType": "address",
              "name": "token",
              "type": "address"
            },
            {
              "internalType": "uint256",
              "name": "amount",
              "type": "uint256"
            },
            {
              "internalType": "address",
              "name": "getAddress",
              "type": "address"
            }
          ],
          "internalType": "struct UpgradeL1BridgeV1.ForceClaimParam[]",
          "name": "params",
          "type": "tuple[]"
        }
      ],
      "name": "forceWithdrawClaimAll",
      "outputs": [],
      "stateMutability": "nonpayable",
      "type": "function"
    },
    {
      "inputs": [
        {
          "internalType": "bytes32",
          "name": "",
          "type": "bytes32"
        }
      ],
      "name": "gb",
      "outputs": [
        {
          "internalType": "address",
          "name": "",
          "type": "address"
        }
      ],
      "stateMutability": "view",
      "type": "function"
    },
    {
      "inputs": [
        {
          "internalType": "string",
          "name": "_hash",
          "type": "string"
        }
      ],
      "name": "getForcePosition",
      "outputs": [
        {
          "internalType": "address",
          "name": "",
          "type": "address"
        }
      ],
      "stateMutability": "view",
      "type": "function"
    },
    {
      "inputs": [],
      "name": "getProxyImplementation",
      "outputs": [
        {
          "internalType": "address",
          "name": "",
          "type": "address"
        }
      ],
      "stateMutability": "view",
      "type": "function"
    },
    {
      "inputs": [],
      "name": "getProxyOwner",
      "outputs": [
        {
          "internalType": "address",
          "name": "",
          "type": "address"
        }
      ],
      "stateMutability": "view",
      "type": "function"
    },
    {
      "inputs": [
        {
          "internalType": "address",
          "name": "_l1messenger",
          "type": "address"
        },
        {
          "internalType": "address",
          "name": "_l2TokenBridge",
          "type": "address"
        }
      ],
      "name": "initialize",
      "outputs": [],
      "stateMutability": "nonpayable",
      "type": "function"
    },
    {
      "inputs": [],
      "name": "l2TokenBridge",
      "outputs": [
        {
          "internalType": "address",
          "name": "",
          "type": "address"
        }
      ],
      "stateMutability": "view",
      "type": "function"
    },
    {
      "inputs": [],
      "name": "messenger",
      "outputs": [
        {
          "internalType": "address",
          "name": "",
          "type": "address"
        }
      ],
      "stateMutability": "view",
      "type": "function"
    },
    {
      "inputs": [
        {
          "internalType": "address",
          "name": "",
          "type": "address"
        }
      ],
      "name": "position",
      "outputs": [
        {
          "internalType": "bool",
          "name": "",
          "type": "bool"
        }
      ],
      "stateMutability": "view",
      "type": "function"
    },
    {
      "inputs": [
        {
          "internalType": "uint256",
          "name": "",
          "type": "uint256"
        }
      ],
      "name": "positions",
      "outputs": [
        {
          "internalType": "address",
          "name": "",
          "type": "address"
        }
      ],
      "stateMutability": "view",
      "type": "function"
    },
    {
      "inputs": [
        {
          "internalType": "address",
          "name": "_closer",
          "type": "address"
        }
      ],
      "name": "setCloser",
      "outputs": [],
      "stateMutability": "nonpayable",
      "type": "function"
    },
    {
      "inputs": [
        {
          "internalType": "address",
          "name": "_closer",
          "type": "address"
        },
        {
          "internalType": "bool",
          "name": "_state",
          "type": "bool"
        }
      ],
      "name": "setCloserAndActive",
      "outputs": [],
      "stateMutability": "nonpayable",
      "type": "function"
    },
    {
      "stateMutability": "payable",
      "type": "receive"
    }
  ],
  "bytecode": "0x60806040526003805460ff1916600117905534801561001d57600080fd5b50600080546001600160a01b0319169055612dde8061003d6000396000f3fe6080604052600436106101b05760003560e01c8063838b2520116100ec57806399fbab881161008a578063b1a1a88211610064578063b1a1a882146105a2578063b7648fb9146105b5578063f1fb2abc146105e5578063f25d6a061461060557600080fd5b806399fbab881461054f5780639a2ac6d51461056f578063a9f9e6751461058257600080fd5b80638f601f66116100c65780638f601f661461049557806390e4b720146104db57806391c49bf81461050f57806396a9a2111461052f57600080fd5b8063838b2520146104555780638627ed9b146104755780638b4c40b0146102a557600080fd5b80633cb747bf1161015957806365c0f8491161013357806365c0f849146103c55780636f1fdad6146103e55780636f7311da146104155780637044f2821461043557600080fd5b80633cb747bf14610365578063485cc9551461038557806358a997f6146103a557600080fd5b80631a4a45611161018a5780631a4a4561146102c75780631ab7710d146102e7578063323205e61461032f57600080fd5b806302fb0c5e14610256578063147b8d6f146102855780631532ec34146102a757600080fd5b3661025157333b156102095760405162461bcd60e51b815260206004820152600f60248201527f4163636f756e74206e6f7420454f41000000000000000000000000000000000060448201526064015b60405180910390fd5b60405162461bcd60e51b815260206004820152601560248201527f537461727420537573656e742050726f746f636f6c00000000000000000000006044820152606401610200565b600080fd5b34801561026257600080fd5b506003546102709060ff1681565b60405190151581526020015b60405180910390f35b34801561029157600080fd5b506102a56102a036600461231d565b610625565b005b3480156102b357600080fd5b506102a56102c23660046123b9565b610745565b3480156102d357600080fd5b506102a56102e236600461243a565b610a2c565b3480156102f357600080fd5b507fb53127684a568b3173ae13b9f8a6016e243e63b6e8ee1178d6a717850b5d6103545b6040516001600160a01b03909116815260200161027c565b34801561033b57600080fd5b5061031761034a36600461245e565b6004602052600090815260409020546001600160a01b031681565b34801561037157600080fd5b50600054610317906001600160a01b031681565b34801561039157600080fd5b506102a56103a0366004612477565b610afa565b3480156103b157600080fd5b506102a56103c03660046124c9565b610bbf565b3480156103d157600080fd5b506102a56103e036600461254c565b610c79565b3480156103f157600080fd5b5061027061040036600461245e565b60086020526000908152604090205460ff1681565b34801561042157600080fd5b506102a5610430366004612569565b610e1b565b34801561044157600080fd5b50600754610317906001600160a01b031681565b34801561046157600080fd5b506102a56104703660046125ee565b610e29565b34801561048157600080fd5b506102a561049036600461231d565b610e95565b3480156104a157600080fd5b506104cd6104b0366004612477565b600260209081526000928352604080842090915290825290205481565b60405190815260200161027c565b3480156104e757600080fd5b507f360894a13ba1a3210667c828492db98dca3e2076cc3735a920a3ca505d382bbc54610317565b34801561051b57600080fd5b50600154610317906001600160a01b031681565b34801561053b57600080fd5b5061031761054a3660046126b3565b610fdc565b34801561055b57600080fd5b5061031761056a36600461245e565b611184565b6102a561057d366004612764565b6111ae565b34801561058e57600080fd5b506102a561059d3660046127c7565b611249565b6102a56105b0366004612840565b6114c2565b3480156105c157600080fd5b506102706105d036600461254c565b60056020526000908152604090205460ff1681565b3480156105f157600080fd5b506102a5610600366004612893565b6115a6565b34801561061157600080fd5b506102a5610620366004612908565b6116a3565b60005b818110156107405761072e83838381811061064557610645612936565b90506020028101906106579190612965565b61066590602081019061254c565b84848481811061067757610677612936565b90506020028101906106899190612965565b6106979060208101906129a3565b8686868181106106a9576106a9612936565b90506020028101906106bb9190612965565b6106cc90606081019060400161254c565b8787878181106106de576106de612936565b90506020028101906106f09190612965565b6060013588888881811061070657610706612936565b90506020028101906107189190612965565b6107299060a081019060800161254c565b611873565b8061073881612a37565b915050610628565b505050565b6001546001600160a01b03166107636000546001600160a01b031690565b6001600160a01b0316336001600160a01b0316146107e95760405162461bcd60e51b815260206004820152602e60248201527f4f564d5f58434841494e3a206d657373656e67657220636f6e7472616374207560448201527f6e61757468656e746963617465640000000000000000000000000000000000006064820152608401610200565b806001600160a01b03166108056000546001600160a01b031690565b6001600160a01b0316636e296e456040518163ffffffff1660e01b815260040160206040518083038186803b15801561083d57600080fd5b505afa158015610851573d6000803e3d6000fd5b505050506040513d601f19601f820116820180604052508101906108759190612a70565b6001600160a01b0316146108f15760405162461bcd60e51b815260206004820152603060248201527f4f564d5f58434841494e3a2077726f6e672073656e646572206f662063726f7360448201527f732d646f6d61696e206d657373616765000000000000000000000000000000006064820152608401610200565b604080516000808252602082019092526001600160a01b03871690869060405161091b9190612ab9565b60006040518083038185875af1925050503d8060008114610958576040519150601f19603f3d011682016040523d82523d6000602084013e61095d565b606091505b50509050806109d45760405162461bcd60e51b815260206004820152603460248201527f5472616e7366657248656c7065723a3a736166655472616e736665724554483a60448201527f20455448207472616e73666572206661696c65640000000000000000000000006064820152608401610200565b856001600160a01b0316876001600160a01b03167f2ac69ee804d9a7a0984249f508dfab7cb2534b465b6ce1580f99a38ba9c5e631878787604051610a1b93929190612af6565b60405180910390a350505050505050565b6007546001600160a01b03163314610a70576040517f89d6e77900000000000000000000000000000000000000000000000000000000815260040160405180910390fd5b60035460ff1615158115151415610ac95760405162461bcd60e51b815260206004820152600a60248201527f53616d65205374617465000000000000000000000000000000000000000000006044820152606401610200565b600380547fffffffffffffffffffffffffffffffffffffffffffffffffffffffffffffff0016911515919091179055565b6000546001600160a01b031615610b795760405162461bcd60e51b815260206004820152602660248201527f436f6e74726163742068617320616c7265616479206265656e20696e6974696160448201527f6c697a65642e00000000000000000000000000000000000000000000000000006064820152608401610200565b600080546001600160a01b039384167fffffffffffffffffffffffff00000000000000000000000000000000000000009182161790915560018054929093169116179055565b333b15610c0e5760405162461bcd60e51b815260206004820152600f60248201527f4163636f756e74206e6f7420454f4100000000000000000000000000000000006044820152606401610200565b60035460ff1615610c615760405162461bcd60e51b815260206004820152601760248201527f506175736564204c315374616e646172644272696467650000000000000000006044820152606401610200565b610c718686333388888888611c6b565b505050505050565b60408051600481526024810182526020810180517bffffffffffffffffffffffffffffffffffffffffffffffffffffffff167f893d20e80000000000000000000000000000000000000000000000000000000017905290516000913091610ce09190612ab9565b600060405180830381855af49150503d8060008114610d1b576040519150601f19603f3d011682016040523d82523d6000602084013e610d20565b606091505b5091505080806020019051810190610d389190612a70565b6001600160a01b0316336001600160a01b031614610d82576040517f7d85418c00000000000000000000000000000000000000000000000000000000815260040160405180910390fd5b6007546001600160a01b0383811691161415610de05760405162461bcd60e51b815260206004820152600c60248201527f53616d65204164647265737300000000000000000000000000000000000000006044820152606401610200565b50600780547fffffffffffffffffffffffff0000000000000000000000000000000000000000166001600160a01b0392909216919091179055565b610c71868686868686611873565b60035460ff1615610e7c5760405162461bcd60e51b815260206004820152601760248201527f506175736564204c315374616e646172644272696467650000000000000000006044820152606401610200565b610e8c8787338888888888611c6b565b50505050505050565b6007546001600160a01b03163314610ed9576040517f89d6e77900000000000000000000000000000000000000000000000000000000815260040160405180910390fd5b60005b8181101561074057600160056000858585818110610efc57610efc612936565b9050602002016020810190610f11919061254c565b6001600160a01b03168152602081019190915260400160002080547fffffffffffffffffffffffffffffffffffffffffffffffffffffffffffffff00169115159190911790556006838383818110610f6b57610f6b612936565b9050602002016020810190610f80919061254c565b81546001810183556000928352602090922090910180547fffffffffffffffffffffffff0000000000000000000000000000000000000000166001600160a01b0390921691909117905580610fd481612a37565b915050610edc565b60008082604051602001610ff09190612b19565b604051602081830303815290604052905060005b60065481101561117a5760006006828154811061102357611023612936565b60009182526020808320909101546001600160a01b0316808352600590915260409091205490915060ff166110585750611168565b6040805160048152602481019182905260009182916001600160a01b03851691611083908890612ab9565b60408051918290039091206020830180517bffffffffffffffffffffffffffffffffffffffffffffffffffffffff167fffffffff00000000000000000000000000000000000000000000000000000000909216919091179052516110e79190612ab9565b600060405180830381855afa9150503d8060008114611122576040519150601f19603f3d011682016040523d82523d6000602084013e611127565b606091505b50915091508115611164576000818060200190518101906111489190612b85565b9050806111585750505050611168565b50919695505050505050565b5050505b8061117281612a37565b915050611004565b5060009392505050565b6006818154811061119457600080fd5b6000918252602090912001546001600160a01b0316905081565b60035460ff16156112015760405162461bcd60e51b815260206004820152601760248201527f506175736564204c315374616e646172644272696467650000000000000000006044820152606401610200565b61124333858585858080601f016020809104026020016040519081016040528093929190818152602001838380828437600092019190915250611dc992505050565b50505050565b6001546001600160a01b03166112676000546001600160a01b031690565b6001600160a01b0316336001600160a01b0316146112ed5760405162461bcd60e51b815260206004820152602e60248201527f4f564d5f58434841494e3a206d657373656e67657220636f6e7472616374207560448201527f6e61757468656e746963617465640000000000000000000000000000000000006064820152608401610200565b806001600160a01b03166113096000546001600160a01b031690565b6001600160a01b0316636e296e456040518163ffffffff1660e01b815260040160206040518083038186803b15801561134157600080fd5b505afa158015611355573d6000803e3d6000fd5b505050506040513d601f19601f820116820180604052508101906113799190612a70565b6001600160a01b0316146113f55760405162461bcd60e51b815260206004820152603060248201527f4f564d5f58434841494e3a2077726f6e672073656e646572206f662063726f7360448201527f732d646f6d61696e206d657373616765000000000000000000000000000000006064820152608401610200565b6001600160a01b038089166000908152600260209081526040808320938b1683529290522054611426908590612b9e565b6001600160a01b03808a166000818152600260209081526040808320948d168352939052919091209190915561145d908686611ed0565b856001600160a01b0316876001600160a01b0316896001600160a01b03167f3ceee06c1e37648fcbb6ed52e17b3e1f275a1f8c7b22a84b2b84732431e046b3888888886040516114b09493929190612bb5565b60405180910390a45050505050505050565b333b156115115760405162461bcd60e51b815260206004820152600f60248201527f4163636f756e74206e6f7420454f4100000000000000000000000000000000006044820152606401610200565b60035460ff16156115645760405162461bcd60e51b815260206004820152601760248201527f506175736564204c315374616e646172644272696467650000000000000000006044820152606401610200565b61074033338585858080601f016020809104026020016040519081016040528093929190818152602001838380828437600092019190915250611dc992505050565b6007546001600160a01b031633146115ea576040517f89d6e77900000000000000000000000000000000000000000000000000000000815260040160405180910390fd5b60005b818110156107405782828281811061160757611607612936565b905060400201602001602081019061161f919061243a565b6005600085858581811061163557611635612936565b61164b926020604090920201908101915061254c565b6001600160a01b03168152602081019190915260400160002080547fffffffffffffffffffffffffffffffffffffffffffffffffffffffffffffff00169115159190911790558061169b81612a37565b9150506115ed565b60408051600481526024810182526020810180517bffffffffffffffffffffffffffffffffffffffffffffffffffffffff167f893d20e8000000000000000000000000000000000000000000000000000000001790529051600091309161170a9190612ab9565b600060405180830381855af49150503d8060008114611745576040519150601f19603f3d011682016040523d82523d6000602084013e61174a565b606091505b50915050808060200190518101906117629190612a70565b6001600160a01b0316336001600160a01b0316146117ac576040517f7d85418c00000000000000000000000000000000000000000000000000000000815260040160405180910390fd5b6007546001600160a01b0384811691161480156117d1575060035460ff161515821515145b15611808576040517f2c52682a00000000000000000000000000000000000000000000000000000000815260040160405180910390fd5b50600780547fffffffffffffffffffffffff0000000000000000000000000000000000000000166001600160a01b039390931692909217909155600380547fffffffffffffffffffffffffffffffffffffffffffffffffffffffffffffff0016911515919091179055565b6001600160a01b03861660009081526005602052604090205460ff166118c5576040517fef30807f00000000000000000000000000000000000000000000000000000000815260040160405180910390fd5b600085856040516020016118da929190612be8565b60408051601f19818403018152600483526024830191829052925060009182916001600160a01b038b169190611911908690612ab9565b60408051918290039091206020830180517bffffffffffffffffffffffffffffffffffffffffffffffffffffffff167fffffffff00000000000000000000000000000000000000000000000000000000909216919091179052516119759190612ab9565b600060405180830381855afa9150503d80600081146119b0576040519150601f19603f3d011682016040523d82523d6000602084013e6119b5565b606091505b50915091508115806119c657508051155b156119fd576040517f1cbba5b300000000000000000000000000000000000000000000000000000000815260040160405180910390fd5b6040517fffffffffffffffffffffffffffffffffffffffff000000000000000000000000606088811b8216602084015286901b16603482015260488101869052600090606801604051602081830303815290604052805190602001209050600082806020019051810190611a719190612b85565b60008181526008602052604090205490915060ff1615611ad35760405162461bcd60e51b815260206004820152601260248201527f616c726561647920636c61696d204861736800000000000000000000000000006044820152606401610200565b808214611b0c576040517fbfd1ca4700000000000000000000000000000000000000000000000000000000815260040160405180910390fd5b600081815260086020526040902080547fffffffffffffffffffffffffffffffffffffffffffffffffffffffffffffff001660011790556001600160a01b038816611bfb57604080516000815260208101918290526001600160a01b038816918991611b7791612ab9565b60006040518083038185875af1925050503d8060008114611bb4576040519150601f19603f3d011682016040523d82523d6000602084013e611bb9565b606091505b50508094505083611bf6576040517f515bd1b600000000000000000000000000000000000000000000000000000000815260040160405180910390fd5b611c0f565b611c0f6001600160a01b0389168789611ed0565b604080518881526001600160a01b03888116602083015233828401529151918a169183917f63bcfce859402f73ec6b3a43a9a3d1cb87269b8de72adf5f854a6a51ae4c0913919081900360600190a35050505050505050505050565b611c806001600160a01b038916873087611f79565b600063662a633a60e01b89898989898888604051602401611ca79796959493929190612c45565b60408051601f198184030181529190526020810180517bffffffffffffffffffffffffffffffffffffffffffffffffffffffff167fffffffff0000000000000000000000000000000000000000000000000000000090931692909217909152600154909150611d20906001600160a01b03168583611fca565b6001600160a01b03808a166000908152600260209081526040808320938c1683529290522054611d51908690612c95565b6001600160a01b03808b1660008181526002602090815260408083208e86168085529252918290209490945551918a1692917f718594027abd4eaed59f95162563e0cc6d0e8d5b86b1c7be8b1b0ac3343d039690611db6908b908b908a908a90612bb5565b60405180910390a4505050505050505050565b600063662a633a60e01b600073deaddeaddeaddeaddeaddeaddeaddeaddead000087873487604051602401611e0396959493929190612cd9565b60408051601f198184030181529190526020810180517bffffffffffffffffffffffffffffffffffffffffffffffffffffffff167fffffffff0000000000000000000000000000000000000000000000000000000090931692909217909152600154909150611e7c906001600160a01b03168483611fca565b836001600160a01b0316856001600160a01b03167f35d79ab81f2b2017e19afb5c5571778877782d7a8786f5907f93b0f4702f4f233485604051611ec1929190612d27565b60405180910390a35050505050565b6040516001600160a01b0383166024820152604481018290526107409084907fa9059cbb00000000000000000000000000000000000000000000000000000000906064015b60408051601f198184030181529190526020810180517bffffffffffffffffffffffffffffffffffffffffffffffffffffffff167fffffffff0000000000000000000000000000000000000000000000000000000090931692909217909152612045565b6040516001600160a01b03808516602483015283166044820152606481018290526112439085907f23b872dd0000000000000000000000000000000000000000000000000000000090608401611f15565b6000546040517f3dbb202b0000000000000000000000000000000000000000000000000000000081526001600160a01b0390911690633dbb202b9061201790869085908790600401612d40565b600060405180830381600087803b15801561203157600080fd5b505af1158015610e8c573d6000803e3d6000fd5b600061209a826040518060400160405280602081526020017f5361666545524332303a206c6f772d6c6576656c2063616c6c206661696c6564815250856001600160a01b031661212d9092919063ffffffff16565b90508051600014806120bb5750808060200190518101906120bb9190612d78565b6107405760405162461bcd60e51b815260206004820152602a60248201527f5361666545524332303a204552433230206f7065726174696f6e20646964206e60448201527f6f742073756363656564000000000000000000000000000000000000000000006064820152608401610200565b606061213c8484600085612144565b949350505050565b6060824710156121bc5760405162461bcd60e51b815260206004820152602660248201527f416464726573733a20696e73756666696369656e742062616c616e636520666f60448201527f722063616c6c00000000000000000000000000000000000000000000000000006064820152608401610200565b600080866001600160a01b031685876040516121d89190612ab9565b60006040518083038185875af1925050503d8060008114612215576040519150601f19603f3d011682016040523d82523d6000602084013e61221a565b606091505b509150915061222b87838387612236565b979650505050505050565b606083156122a257825161229b576001600160a01b0385163b61229b5760405162461bcd60e51b815260206004820152601d60248201527f416464726573733a2063616c6c20746f206e6f6e2d636f6e74726163740000006044820152606401610200565b508161213c565b61213c83838151156122b75781518083602001fd5b8060405162461bcd60e51b81526004016102009190612d95565b60008083601f8401126122e357600080fd5b50813567ffffffffffffffff8111156122fb57600080fd5b6020830191508360208260051b850101111561231657600080fd5b9250929050565b6000806020838503121561233057600080fd5b823567ffffffffffffffff81111561234757600080fd5b612353858286016122d1565b90969095509350505050565b6001600160a01b038116811461237457600080fd5b50565b60008083601f84011261238957600080fd5b50813567ffffffffffffffff8111156123a157600080fd5b60208301915083602082850101111561231657600080fd5b6000806000806000608086880312156123d157600080fd5b85356123dc8161235f565b945060208601356123ec8161235f565b935060408601359250606086013567ffffffffffffffff81111561240f57600080fd5b61241b88828901612377565b969995985093965092949392505050565b801515811461237457600080fd5b60006020828403121561244c57600080fd5b81356124578161242c565b9392505050565b60006020828403121561247057600080fd5b5035919050565b6000806040838503121561248a57600080fd5b82356124958161235f565b915060208301356124a58161235f565b809150509250929050565b803563ffffffff811681146124c457600080fd5b919050565b60008060008060008060a087890312156124e257600080fd5b86356124ed8161235f565b955060208701356124fd8161235f565b945060408701359350612512606088016124b0565b9250608087013567ffffffffffffffff81111561252e57600080fd5b61253a89828a01612377565b979a9699509497509295939492505050565b60006020828403121561255e57600080fd5b81356124578161235f565b60008060008060008060a0878903121561258257600080fd5b863561258d8161235f565b9550602087013567ffffffffffffffff8111156125a957600080fd5b6125b589828a01612377565b90965094505060408701356125c98161235f565b92506060870135915060808701356125e08161235f565b809150509295509295509295565b600080600080600080600060c0888a03121561260957600080fd5b87356126148161235f565b965060208801356126248161235f565b955060408801356126348161235f565b945060608801359350612649608089016124b0565b925060a088013567ffffffffffffffff81111561266557600080fd5b6126718a828b01612377565b989b979a50959850939692959293505050565b7f4e487b7100000000000000000000000000000000000000000000000000000000600052604160045260246000fd5b6000602082840312156126c557600080fd5b813567ffffffffffffffff808211156126dd57600080fd5b818401915084601f8301126126f157600080fd5b81358181111561270357612703612684565b604051601f8201601f19908116603f0116810190838211818310171561272b5761272b612684565b8160405282815287602084870101111561274457600080fd5b826020860160208301376000928101602001929092525095945050505050565b6000806000806060858703121561277a57600080fd5b84356127858161235f565b9350612793602086016124b0565b9250604085013567ffffffffffffffff8111156127af57600080fd5b6127bb87828801612377565b95989497509550505050565b600080600080600080600060c0888a0312156127e257600080fd5b87356127ed8161235f565b965060208801356127fd8161235f565b9550604088013561280d8161235f565b9450606088013561281d8161235f565b93506080880135925060a088013567ffffffffffffffff81111561266557600080fd5b60008060006040848603121561285557600080fd5b61285e846124b0565b9250602084013567ffffffffffffffff81111561287a57600080fd5b61288686828701612377565b9497909650939450505050565b600080602083850312156128a657600080fd5b823567ffffffffffffffff808211156128be57600080fd5b818501915085601f8301126128d257600080fd5b8135818111156128e157600080fd5b8660208260061b85010111156128f657600080fd5b60209290920196919550909350505050565b6000806040838503121561291b57600080fd5b82356129268161235f565b915060208301356124a58161242c565b7f4e487b7100000000000000000000000000000000000000000000000000000000600052603260045260246000fd5b600082357fffffffffffffffffffffffffffffffffffffffffffffffffffffffffffffff6183360301811261299957600080fd5b9190910192915050565b60008083357fffffffffffffffffffffffffffffffffffffffffffffffffffffffffffffffe18436030181126129d857600080fd5b83018035915067ffffffffffffffff8211156129f357600080fd5b60200191503681900382131561231657600080fd5b7f4e487b7100000000000000000000000000000000000000000000000000000000600052601160045260246000fd5b60007fffffffffffffffffffffffffffffffffffffffffffffffffffffffffffffffff821415612a6957612a69612a08565b5060010190565b600060208284031215612a8257600080fd5b81516124578161235f565b60005b83811015612aa8578181015183820152602001612a90565b838111156112435750506000910152565b60008251612999818460208701612a8d565b818352818160208501375060006020828401015260006020601f19601f840116840101905092915050565b838152604060208201526000612b10604083018486612acb565b95945050505050565b7f5f00000000000000000000000000000000000000000000000000000000000000815260008251612b51816001850160208701612a8d565b7f28290000000000000000000000000000000000000000000000000000000000006001939091019283015250600301919050565b600060208284031215612b9757600080fd5b5051919050565b600082821015612bb057612bb0612a08565b500390565b6001600160a01b0385168152836020820152606060408201526000612bde606083018486612acb565b9695505050505050565b7f5f000000000000000000000000000000000000000000000000000000000000008152818360018301377f282900000000000000000000000000000000000000000000000000000000000091016001810191909152600301919050565b60006001600160a01b03808a1683528089166020840152808816604084015280871660608401525084608083015260c060a0830152612c8860c083018486612acb565b9998505050505050505050565b60008219821115612ca857612ca8612a08565b500190565b60008151808452612cc5816020860160208601612a8d565b601f01601f19169290920160200192915050565b60006001600160a01b0380891683528088166020840152808716604084015280861660608401525083608083015260c060a0830152612d1b60c0830184612cad565b98975050505050505050565b82815260406020820152600061213c6040830184612cad565b6001600160a01b0384168152606060208201526000612d626060830185612cad565b905063ffffffff83166040830152949350505050565b600060208284031215612d8a57600080fd5b81516124578161242c565b6020815260006124576020830184612cad56fea2646970667358221220bf3aa9a362f63178965c2fa042a63af725a208dab8d4395b6c9c0dc145f4a33064736f6c63430008090033",
  "linkReferences": {},
  "deployedLinkReferences": {}
}